:100000000C94370E0C94640E0C94640E0C94640ED5
:100010000C94640E0C94640E0C94640E0C94640E98
:100020000C94640E0C94640E0C94640E0C94640E88
:100030000C94640E0C94640E0C94640E0C94640E78
:100040000C94640E0C94F07D0C94640E0C94640E6D
:100050000C94640E0C94640E0C94C3860C9456C6D7
:100060000C94640E0C945D2B0C94640E0C94640E32
:100070000C94640E0C94640E0C94640E0C94640E38
:100080000C94640E0C94640E0C94640E0C94640E28
:100090000C94640E0C94640E0C94640E0C9456C173
:1000A0000C94640E0C94640E0C94640E0C94640E08
:1000B0000C94640E0C94640E0C94640E0C94640EF8
:1000C0000C94640E0C94640E0C94640E0C94640EE8
:1000D0000C94640E0C94640E0C94640E0C94640ED8
:1000E0000C94640E084AD73B3BCE016E84BCBFFD26
:1000F000C12F3D6C74319ABD56833DDA3D00C77FF8
:1001000011BED9E4BB4C3E916BAAAABE0000008090
:100110003F05A84CCDB2D44EB93836A9020C50B91F
:10012000918688083CA6AAAA2ABE000000803F4DFE
:10013000383420582059205A20450043616E6E6F94
:100140007420656E746572207375626469723A20FA
:10015000004D3234004D3233202573006175746FC9
:1001600025692E67006572726F72207772697469F3
:100170006E6720746F2066696C65004E6F74205343
:1001800044207072696E74696E67002F00534420BA
:100190007072696E74696E67206279746520002ED2
:1001A0000044656C6574696F6E206661696C656496
:1001B0002C2046696C653A200046696C65206465B0
:1001C0006C657465643A002E006F70656E20666120
:1001D000696C65642C2046696C653A200057726929
:1001E00074696E6720746F2066696C653A20002E12
:1001F000006F70656E206661696C65642C204669CD
:100200006C653A20002E006F70656E206661696C27
:1002100065642C2046696C653A200046696C65204F
:1002200073656C6563746564002053697A653A2070
:100230000046696C65206F70656E65643A20002E1B
:10024000006F70656E206661696C65642C2046697C
:100250006C653A20004E6F77206672657368206681
:10026000696C653A20004E6F7720646F696E672075
:1002700066696C653A20002220706F73002220703E
:100280006172656E743A2200535542524F5554497B
:100290004E452043414C4C207461726765743A228C
:1002A00000747279696E6720746F2063616C6C20D2
:1002B0007375622D67636F64652066696C65732072
:1002C0007769746820746F6F206D616E79206C653A
:1002D00076656C732E204D4158206C6576656C20D8
:1002E00069733A0053442063617264206F6B006F3E
:1002F00070656E526F6F74206661696C656400761C
:100300006F6C756D652E696E6974206661696C65C8
:100310006400534420696E6974206661696C00480A
:10032000617264636F6465642044656661756C74B2
:100330002053657474696E6773204C6F61646564E3
:100340000053746F7265642073657474696E6773AB
:1003500020726574726965766564002044002049E6
:10036000002020204D33303120500050494420736C
:10037000657474696E67733A00205A002059002032
:10038000204D323036205800486F6D65206F66660C
:1003900073657420286D6D293A00204500205A00AD
:1003A00020580020420020540020204D32303520BB
:1003B0005300416476616E636564207661726961A1
:1003C000626C65733A20533D4D696E2066656564C5
:1003D0007261746520286D6D2F73292C20543D4D5A
:1003E000696E2074726176656C2066656564726101
:1003F000746520286D6D2F73292C20423D6D696E28
:10040000696D756D207365676D656E742074696DB7
:100410006520286D73292C20583D6D6178696D75B4
:100420006D205859206A65726B20286D6D2F7329D5
:100430002C20205A3D6D6178696D756D205A206AB7
:1004400065726B20286D6D2F73292C2020453D6D22
:100450006178696D756D2045206A65726B20286D25
:100460006D2F73290020540020204D32303420534A
:1004700000416363656C65726174696F6E3A205305
:100480003D616363656C65726174696F6E2C2054A5
:100490003D7265747261637420616363656C65723B
:1004A0006174696F6E00204500205A0020590020B9
:1004B000204D3230312058004D6178696D756D20C6
:1004C000416363656C65726174696F6E20286D6D40
:1004D0002F7332293A00204500205A00205900206D
:1004E000204D3230332058004D6178696D756D2094
:1004F00066656564726174657320286D6D2F73295C
:100500003A00204500205A0020590020204D393261
:1005100020580053746570732070657220756E6981
:10052000743A0053657474696E67732053746F7204
:100530006564004572726F723A006563686F3A00D5
:1005400053544F505045442E20005072696E7465CC
:10055000722073746F707065642064756520746FA9
:10056000206572726F72732E2046697820746865F8
:10057000206572726F7220616E6420757365204D04
:1005800039393920746F20726573746172742E204A
:100590002854656D70657261747572652069732089
:1005A00072657365742E20536574206974206166CA
:1005B0007465722072657374617274696E67290064
:1005C0004D3630300054726967676572696E672016
:1005D0004D363030004B494C4C45442E2000507273
:1005E000696E7465722068616C7465642E206B6935
:1005F0006C6C28292063616C6C6564210046696C11
:10060000616D656E74204164646564004E6F2046C0
:10061000696C616D656E74006F6B00526573656E19
:10062000643A20002200556E6B6E6F776E20636F08
:100630006D6D616E643A20220045786974696E6759
:10064000204D363030005072696E74696E672E2E00
:100650002E004368616E67652066696C616D656E2A
:1006600074005A204F6666736574203A20007A5FE2
:100670006D61783A20007A5F6D696E3A20005A20E9
:100680004F6666736574005A204F66667365742002
:100690006F6B007A5F6D696E3A2000795F6D696EED
:1006A0003A2000785F6D696E3A2000205A3A0020A7
:1006B000593A0020436F756E7420583A2000204547
:1006C0003A00205A3A0020593A00583A0046495216
:1006D0004D574152455F4E414D453A4D61726C69EF
:1006E0006E2056312E302E323B20537072696E745C
:1006F00065722F6772626C206D6173687570206619
:100700006F722067656E36204649524D57415245FB
:100710005F55524C3A68747470733A2F2F6769743E
:100720006875622E636F6D2F4D61726C696E4669DC
:10073000726D776172652F4D61726C696E205052D7
:100740004F544F434F4C5F56455253494F4E3A31E9
:100750002E30204D414348494E455F545950453A4B
:100760004A756C69612045585452554445525F435F
:100770004F554E543A3120555549443A3030303077
:10078000303030302D303030302D303030302D3072
:100790003030302D3030303030303030303030305C
:1007A0000A004A756C6961204F66662E004A756CB6
:1007B00069612072656164792E0042656420646F0E
:1007C0006E652E0020423A0020453A00543A00421D
:1007D00065642068656174696E672E2E2E00486519
:1007E0006174696E6720646F6E652E0020573A0051
:1007F00020453A00543A004E6F7A7A6C652068655D
:100800006174696E672E2E2E002042403A0020400F
:100810003A00202F003A00205400202F0020423AB6
:1008200000202F006F6B20543A002569206D696EFF
:100830002C2025692073656300456E642066696C11
:1008400065206C69737400426567696E2066696C27
:1008500065206C697374004E6F206D6F76652E0095
:100860004A756C69612072656164792E0052657306
:10087000756D696E67207072696E74005761697476
:1008800020666F7220757365722E2E2E005A2070AE
:10089000726F6265206F75742E20626564005A2045
:1008A00070726F6265206F75742E206265640048F7
:1008B0006F6D6520582F59206265666F7265205AEA
:1008C00000486F6D6520582F59206265666F72650C
:1008D000205A00536C6565702E2E2E00FFFFFF001E
:1008E000004D4300007A43000082430000A0400016
:1008F00000A04000000040000000000000000000D8
:1009000000000000000000000000000000000000E7
:10091000004D4300007A4300008243256920686F40
:10092000757273202569206D696E75746573004456
:100930006F6E65207072696E74696E672066696C8F
:10094000650053544F505045442E20005072696E3C
:100950007465722073746F707065642064756520AF
:10096000746F206572726F72732E204669782074DE
:100970006865206572726F7220616E6420757365A0
:10098000204D39393920746F207265737461727427
:100990002E202854656D70657261747572652069CA
:1009A000732072657365742E2053657420697420FA
:1009B00061667465722072657374617274696E67C2
:1009C00029004E6F204C696E65204E756D62657210
:1009D000207769746820636865636B73756D2C207C
:1009E0004C617374204C696E653A20004E6F204351
:1009F0006865636B73756D2077697468206C696EC8
:100A000065206E756D6265722C204C617374204C8C
:100A1000696E653A2000636865636B73756D206D60
:100A200069736D617463682C204C617374204C6928
:100A30006E653A20004C696E65204E756D62657278
:100A4000206973206E6F74204C617374204C696E42
:100A500065204E756D6265722B312C204C6173746C
:100A6000204C696E653A20004D31313000446F6E84
:100A70006520736176696E672066696C652E006F0C
:100A80006B004D3239002020506C616E6E657242F1
:100A9000756666657242797465733A200020467205
:100AA0006565204D656D6F72793A2000446563205D
:100AB0003238203230313500436F6D70696C6564B7
:100AC0003A2000467261636B74616C20576F726BE1
:100AD0007300207C20417574686F723A2000446571
:100AE0006320323820323031352031313A34363AD1
:100AF000323500204C6173742055706461746564F4
:100B00003A2000312E302E32004D61726C696E0039
:100B100020536F6674776172652052657365740047
:100B2000205761746368646F672052657365740051
:100B30002042726F776E206F7574205265736574F2
:100B4000002045787465726E616C2052657365741F
:100B500000506F7765725570007374617274002273
:100B600000656E717565696E672022002200656EF2
:100B7000717565696E6720220020746F6F206C6F3D
:100B80006E6720657874727573696F6E2070726518
:100B900076656E7465640020636F6C64206578749C
:100BA000727573696F6E2070726576656E746564B8
:100BB000007C3C3E5E2B3D3F2F5B5D3B2C2A225C44
:100BC0000045303A20005A3A2000593A2000583A5D
:100BD00020004D53312C4D53322050696E730A0062
:100BE00024F404D9201BC40C5C0E9804C4095F02D1
:100BF00065077101F405F900FB04B30048048700A0
:100C0000C10369005803550003034500BE023A00C2
:100C10008402310053022A00290225000402200028
:100C2000E4011C00C8011900AF011700980114006D
:100C300084011300710110006101100051010E00C8
:100C400043010D0036010B002B010B0020010B00AE
:100C5000150109000C01090003010800FB00080050
:100C6000F3000800EB000700E4000600DE000600C9
:100C7000D8000600D2000600CC000500C700050021
:100C8000C2000500BD000400B9000400B500040066
:100C9000B1000400AD000400A9000400A500030099
:100CA000A20003009F0004009B00030098000300C3
:100CB0009500020093000300900003008D000200E5
:100CC0008B000300880002008600020084000300FD
:100CD000810002007F0002007D0002007B00020014
:100CE0007900020077000100760002007400020023
:100CF00072000100710002006F0002006D0001002F
:100D00006C0002006A000100690002006700010037
:100D1000660001006500010064000200620001003D
:100D200061000100600001005F0002005D00010041
:100D30005C0001005B0001005A0001005900010045
:100D40005800010057000100560001005500010045
:100D50005400010053000000530001005200010044
:100D600051000100500001004F0001004E00000042
:100D70004E0001004D0001004C0001004B0000003E
:100D80004B0001004A00010049000100480000003A
:100D90004800010047000100460000004600010035
:100DA0004500000045000100440001004300000030
:100DB0004300010042000000420001004100000029
:100DC00041000100400001003F0000003F00010021
:100DD0003E0000003E0001003D0000003D0001001B
:100DE0003C0000003C0000003C0001003B00000013
:100DF0003B0001003A0000003A0001003900000009
:100E000039000100380000003800000038000100FF
:100E100037000000370001003600000036000000F7
:100E200036000100350000003500000035000100EB
:100E300034000000340000003400010033000000E2
:100E400033000000330001003200000032000000D7
:100E500032000100310000003100000031000100CB
:100E60003000000030000000300001002F000000C2
:100E70002F0000002F0000002F0001002E000000B6
:100E80002E0000002E0001002D0000002D000000AB
:100E90002D0000002D0001002C0000002C0000009F
:100EA0002C0000002C0001002B0000002B00000093
:100EB0002B0000002B0001002A0000002A00000087
:100EC0002A0000002A00010029000000290000007B
:100ED000290000002900000029000100280000006E
:100EE0002800000028000000280000002800010061
:100EF0002700000027000000270000002700000056
:100F00002700010026000000260000002600000047
:100F1000260000002600010025000000250000003A
:100F2000250000002500000025000000250001002C
:100F30002400000024000000240000002400000021
:100F40002400010023000000230000002300000013
:100F50002300000023000000230000002300010004
:100F600022000000220000002200000022000000F9
:100F700022000000220001002100000021000000EA
:100F800021000000210000002100000021000000DD
:100F900021000100200000002000000020000000CF
:100FA00020000000200000002000000020000000C1
:100FB000200001001F0000001F0000001F000000B3
:100FC0001F0000001F0000001F0000001F000100A4
:100FD0001E0000001E0000001E0000001E00000099
:100FE00024F4D43050C38E20C2A24017828B7011DB
:100FF000127A910D816CD90AA861E108C758660779
:10100000615143061E4B5D05C145A7041A411104F9
:10101000093D9803713931034036DB026533910293
:10102000D4305402802E1D02632CEE01752AC501B6
:10103000B028A001102781018F2564012B244B01CA
:10104000E0223401AC211F018D200D01801FFC0026
:10105000841EED00971DDF00B81CD200E61BC60001
:10106000201BBC00641AB200B219A8000A19A00023
:101070006A189900D117910040178B00B5168400AB
:1010800031167E00B31579003A157300C7146F004E
:1010900058146A00EE1366008813630025135E007F
:1010A000C7125B006C12570015125400C111510099
:1010B00070114F0021114B00D61049008D104700D0
:1010C0004610440002104200C00F4000800F3E0056
:1010D000420F3C00060F3B00CB0E3800930E37004A
:1010E0005C0E3500270E3400F30D3200C10D3100C7
:1010F000900D3000600D2E00320D2D00050D2C00DE
:10110000D90C2B00AE0C2900850C29005C0C2700A3
:10111000350C27000E0C2600E80B2400C40B24001D
:10112000A00B23007D0B23005A0B2100390B21005B
:10113000180B2000F80A1F00D90A1E00BB0A1E0067
:101140009D0A1D00800A1D00630A1C00470A1B003F
:101150002C0A1B00110A1A00F7091A00DD091900F0
:10116000C4091900AB091900920917007B0918007E
:10117000630917004C0916003609160020091600ED
:101180000A091500F5081500E0081400CC08140041
:10119000B8081400A4081400900813007D08120079
:1011A0006B0813005808120046081200340811009A
:1011B000230811001208110001081100F0071000A7
:1011C000E0071000D0071000C0071000B0070F00A4
:1011D000A107100091070E0083070F0074070F008E
:1011E00065070E0057070E0049070E003B070D006C
:1011F0002E070E0020070D0013070D0006070D0037
:10120000F9060C00ED060D00E0060C00D4060C00FB
:10121000C8060C00BC060C00B0060C00A4060B00AF
:1012200099060C008D060B0082060B0077060B005A
:101230006C060B0061060A0057060B004C060A00FC
:1012400042060A0038060A002E060A0024060A0092
:101250001A060A001006090007060A00FD05090023
:10126000F4050900EB050900E2050900D9050900AC
:10127000D0050900C7050900BE050900B50508002D
:10128000AD050800A50509009C05080094050800A7
:101290008C050800840508007C050800740508001A
:1012A0006C050700650508005D0507005605080088
:1012B0004E050700470507004005080038050700F0
:1012C000310507002A050700230507001C05060055
:1012D000160507000F0507000805060002050700B0
:1012E000FB040600F5040700EE040600E80406000F
:1012F000E2040700DB040600D5040600CF04060064
:10130000C9040600C3040600BD040600B7040600B5
:10131000B1040500AC040600A6040600A004050004
:101320009B04060095040500900406008A0405004D
:1013300085040500800406007A0405007504050094
:10134000700405006B0405006604050061040500D7
:101350005C04050057040500520405004D04050017
:1013600048040500430405003E0404003A04050057
:1013700035040500300404002C0405002704040093
:10138000230405001E0404001A04040016040500CA
:10139000110404000D040400090405000404040001
:1013A00000040400FC030400F8030400F403040038
:1013B000F0030400EC030400E8030400E403040069
:1013C000E0030400DC030400D8030400D403040099
:1013D000D0030400CC030400C8030300C5030300CA
:1013E000656E6473746F7073206869743A205A0074
:1013F000205A3A00656E6473746F70732068697464
:101400003A20590020593A00656E6473746F707306
:10141000206869743A20580020583A00656E647359
:10142000746F7073206869743A20004572723A20B4
:101430004D415854454D50204245440054656D700F
:101440006572617475726520686561746564206297
:101450006564207377697463686564206F66662EBF
:10146000204D415854454D5020747269676765722C
:101470006564202121004572723A204D494E544541
:101480004D50003A20457874727564657220737708
:10149000697463686564206F66662E204D494E54FA
:1014A000454D50207472696767657265642021003C
:1014B0004572723A204D415854454D50003A2045EE
:1014C0007874727564657220737769746368656493
:1014D000206F66662E204D415854454D5020747241
:1014E00069676765726564202100202D20496E764A
:1014F000616C6964206578747275646572206E75BC
:101500006D6265722021001000600350012C019073
:10151000012201D001180110020E0170020401E045
:1015200002FA006003F0000004E600B004DC00A052
:1015300005D200B006C8000008BE00A009B40080B3
:101540000BAA00D00DA00090109600C0138C007064
:10155000178200901B780010206E00C0246400E009
:101560002D500080353C00A03A2800A03D1400001A
:101570003F0000A03FECFF504944204175746F7458
:10158000756E652066696E697368656421205075A3
:101590007420746865206C617374204B702C204B30
:1015A0006920616E64204B6420636F6E7374616E9A
:1015B00074732066726F6D2061626F766520696E4C
:1015C000746F20436F6E66696775726174696F6EC0
:1015D0002E6800504944204175746F74756E652003
:1015E0006661696C6564212074696D656F7574004E
:1015F00020403A006F6B20543A006F6B20423A0053
:10160000504944204175746F74756E652066616938
:101610006C6564212054656D7065726174757265C6
:1016200020746F6F206869676800204B643A20005F
:10163000204B693A2000204B703A200020436C6117
:10164000737369632050494420002054753A200088
:10165000204B753A2000206D61783A2000206D699A
:101660006E3A200020643A200020626961733A20BB
:10167000002D2D3A2D2D002D2D2D005344002059E5
:10168000000120000120005072696E7465722049CB
:101690006E666F004E6F2053442063617264005089
:1016A00072696E742066726F6D2053440053746FBC
:1016B00070207072696E7400526573756D6520706C
:1016C00072696E74005061757365207072696E7412
:1016D00000436F6E74726F6C00507265706172655A
:1016E0000054756E6500496E666F207363726565A0
:1016F0006E00052E2E004D61696E004D3234004D96
:101700003233202573004D383420582059205A2078
:101710004500526573746F7265206661696C736110
:101720006665004C6F6164206D656D6F7279005362
:10173000746F7265206D656D6F7279004D3834007D
:1017400044697361626C652073746570706572734F
:10175000004D6F766520617869730054656D706522
:101760007261747572650053656E736F7220697370
:10177000204F46460053656E736F72206973204F89
:101780004E004D61696E004D6F766520302E316DD3
:101790006D004D6F766520316D6D004D6F76652063
:1017A00031306D6D005072657061726500457874FE
:1017B0007275646572004D6F7665205A004D6F76C4
:1017C000652059004D6F76652058004D6F76652075
:1017D00061786973004578747275646572005A00A7
:1017E0005900580050726568656174204142532069
:1017F000636F6E66005072656865617420504C417D
:1018000020636F6E66005049442D43005049442DBB
:1018100043005049442D44005049442D4400504950
:10182000442D49005049442D49005049442D500051
:101830005049442D5000200220466163740020026C
:101840002046616374002002204D61780020022050
:101850004D6178002002204D696E002002204D6904
:101860006E004F6666004F6E20004F6666004F6E3A
:1018700020004175746F74656D700046616E207351
:10188000706565640046616E207370656564004232
:10189000656400426564004E6F7A7A6C65004E6F35
:1018A0007A7A6C6500436F6E74726F6C0053746F5C
:1018B0007265206D656D6F727900426564004265E6
:1018C00064004E6F7A7A6C65004E6F7A7A6C6500B0
:1018D00046616E2073706565640046616E207370AA
:1018E0006565640054656D7065726174757265003C
:1018F00053746F7265206D656D6F72790042656417
:1019000000426564004E6F7A7A6C65004E6F7A7A99
:101910006C650046616E2073706565640046616E9B
:101920002073706565640054656D706572617475CF
:1019300072650053746F7265206D656D6F7279000A
:1019400050726568656174004D6F7665205A00437A
:101950006F6F6C646F776E004E6F7A7A6C65004EB5
:101960006F7A7A6C65004C6576656C696E67207776
:10197000697A617264005A204F6666736574005A12
:10198000204F666673657400473238004175746F86
:1019900020686F6D65004D61696E005A0047312007
:1019A0005831343120593132300047393000473214
:1019B0003800473932205A30004731205A3000472A
:1019C0003120583020593530004731205A350047F2
:1019D00031205A30004731205830205931393500F4
:1019E0004731205A35004731205825642059256455
:1019F00000473238004731205A35004D363030002C
:101A00004368616E67652066696C616D656E740020
:101A100053656E736F72206973204F46460053659D
:101A20006E736F72206973204F4E00466C6F7700A3
:101A3000466C6F770046616E207370656564004682
:101A4000616E207370656564004265640042656480
:101A5000004E6F7A7A6C65004E6F7A7A6C6500532F
:101A600070656564005370656564004D61696E0062
:101A7000436172642072656D6F76656400436172C4
:101A80006420696E736572746564004D3330302074
:101A9000533639382050323030004D3330302053F7
:101AA000363539205032303000467261636B7461D4
:101AB0006C20576F726B730044656320323820329C
:101AC0003031350052656C656173653A20005665AA
:101AD0007273696F6E20322E34004A756C69610032
:101AE000202020467261636B74616C20576F726BAB
:101AF0007320200020202020204A756C6961207608
:101B0000322E342020202000000021002400270055
:101B10002A002D00300033000101000004010701FC
:101B20000A0100002200250028002B002E003100B1
:101B3000340002010000050108010B010000200033
:101B40002300260029002C002F0032000001000095
:101B50000301060109010505050507050808080830
:101B6000020202020A0A0808040404040101010135
:101B70000101010103030303030303030407070730
:101B80000C0C0C0C0C0C0C0C0202020206060606D5
:101B9000060606060B0B0B0B0B0B0B0B01021020A2
:101BA0002008081020401020408002010201080493
:101BB0000201010204081020408080402010080427
:101BC0000201800402018040201008040201080480
:101BD00002010102040810204080010204081020C4
:101BE00040800000090A02080B0C0D0706030401DF
:101BF00000000000000000000000000000000000E5
:101C000000000000000000000000000000001110B3
:101C10000F000000000000000000000000000000B5
:101C20000000000000000000494E46494E4954594A
:101C30004E414ECDCCCC3D0AD7233C17B7D1387797
:101C4000CC2B329595E6241FB14F0A0000204100AD
:101C500000C84200401C4620BCBE4CCA1B0E5AAEF7
:101C6000C59D7400F12BA62EE797FCBFA12E112471
:101C70001FBECFEFD1E2DEBFCDBF00E00CBF16E04C
:101C8000A0E0B2E0E8EAFEE901E00BBF02C0079085
:101C90000D92AC32B107D9F71BBE14E1ACE2B6E04D
:101CA00001C01D92A239B107E1F71CE1CCE6DCE1ED
:101CB00004C02297FE010E94FACEC436D107C9F7AC
:101CC0000E948AC90C9448CF0C940000A0E0B0E0B8
:101CD000ECE6FEE00C9417CFEC015B016115710599
:101CE00019F0FB0191838083F9908F2D90E00E9481
:101CF000FECE892BC9F7FDE2FF1621F4F990EE2400
:101D0000E39405C02BE2F21609F4F990EE248E015B
:101D100001501040C80168E27CE143E050E072D21B
:101D2000892BF9F48E010E5F1F4FC8016BE27CE135
:101D300045E050E067D2892B19F48E01095F1F4FEF
:101D4000A114B10419F0F50111830083E0FC04C073
:101D500070E090E080E813C070E090E080E86FEF02
:101D600007C1C80160E37CE143E050E04BD2892B1E
:101D700069F4A114B10429F470E090E080EC6FE7FD
:101D8000F7C02296F501D183C083F6CF8824992429
:101D900040E050E060E070E0EF2DE053EA30A0F565
:101DA000F2E0EF2A8E2D90E09C0128703070E2FE68
:101DB00006C0232B79F50894811C911C2BC0232B82
:101DC00019F0089481089108DB01CA0112E0880F1C
:101DD000991FAA1FBB1F1A95D1F7480F591F6A1FD9
:101DE0007B1F440F551F661F771F4E0F511D611D2E
:101DF000711D483929E9520729E9620729E172076B
:101E000048F084E0E82A06C0EE3F31F4E3FC39C034
:101E100098E0E92AF990C0CFE53311F0E53189F572
:101E200029912D3219F4E0E1EE2A05C02B3219F088
:101E300081E090E003C0299182E090E0E22FE0533E
:101E4000EA3018F0C81BD90B1CC020E030E0FCE0E1
:101E500020383F075CF4C901880F991F880F991F2C
:101E6000280F391F220F331F2E0F311DE991E05328
:101E7000EA3068F3E4FE03C0309521953F4F820EAF
:101E8000931ECE2CDD24E1FE07C0A114B10421F085
:101E90002197F501D183C083CB01BA010E9463CBA6
:101EA0007B018C01F3E0CF22DD2423E0C216D104B4
:101EB00021F417FB109517F9109557016801C80117
:101EC000B70120E030E040E050E00E94C3CA882320
:101ED00009F44AC097FE0DC027E4E22E2CE1F22E51
:101EE0009094819491089394C0E2D0E000E010E0D7
:101EF00012C09FE5E92E9CE1F92EF6CFF70125915E
:101F0000359145915491C601B5010E94A3CD5B0165
:101F10006C018C1A9D0A8C169D0684F7D595C79581
:101F20000F5F1F4F0630110529F08CEF9FEFE80E71
:101F3000F91EF1CFC501D6017C018D018C2D880FD2
:101F40008D2D881F8F3F51F0C601B50120E030E094
:101F500040E050E00E94C3CA882331F482E290E05E
:101F600090939114809390147E2D9F2D802F612F3C
:101F7000272F392F482F562FB901CA01CDB7DEB709
:101F8000ECE00C9433CF2F923F925F926F927F924E
:101F90008F929F92AF92BF92CF92DF92EF92FF9279
:101FA0000F931F93CF93DF938C011B01EA016115FF
:101FB000710519F0FB0191838083209749F0CE01D0
:101FC0000297839728F020E030E040E050E0F6C030
:101FD000F801A1908F018A2D90E00E94FECE892BFE
:101FE000B9F7FDE2AF1631F4F801A1908F01552445
:101FF000539407C0FBE2AF1619F4F801A1908F01CA
:102000005524209719F0C031D105C1F4F0E3AF1683
:1020100079F4F8018081883711F0883549F4F801A6
:10202000A1800E5F1F4FF2E05F2AC0E1D0E006C042
:10203000209721F480E3A816E9F427C0C830D10521
:1020400031F1C930D10524F4C230D10531F50CC0CD
:10205000CA30D10589F0C031D105F9F4C12CD12C99
:10206000E12CB8E0FB2E28C0C12CD12CE12CA0E43F
:10207000FA2E22C0CAE0D0E0FCECCF2EFCECDF2E22
:10208000FCECEF2EFCE0FF2E17C0C8E0D0E0C12C26
:10209000D12CE12CE0E1FE2E0FC09E01442737FD3C
:1020A0004095542F60E070E080E090E80E94BBCE45
:1020B000C901DA016C017D0120E030E040E050E030
:1020C00060E03E01882477FC8094982C70EDB72E58
:1020D000BA0CE9E0EB1570F48A2D81548A3118F4BA
:1020E00099ECB92E06C08A2D81568A3150F589EABD
:1020F000B82EBA0C8B2D90E08C179D0714F56F3F0E
:10210000E1F0C216D306E406F506B0F0CA01B90143
:10211000A40193010E9475CE9B01AC012B0D311DD2
:10212000411D511D2130F0E03F07F0E04F07F0E87E
:102130005F0710F461E001C06FEFF801A1908F011B
:10214000C5CF2114310481F0662331F001501040D5
:10215000F1011183008308C051FE1AC002501040E3
:10216000F1011183008314C067FF12C050FC05C049
:102170002FEF3FEF4FEF5FE704C020E030E040E09B
:1021800050E882E290E0909391148093901416C0EE
:1021900050FE08C050954095309521953F4F4F4FC8
:1021A0005F4F0CC057FF0AC082E290E090939114F9
:1021B000809390142FEF3FEF4FEF5FE7B901CA0113
:1021C000DF91CF911F910F91FF90EF90DF90CF9013
:1021D000BF90AF909F908F907F906F905F903F9057
:1021E0002F900895FB01DC0105900D920020E1F78E
:1021F0000895FC0105900020E9F7809590958E0FD9
:102200009F1F0895FB01DC014150504088F08D91E3
:1022100081341CF08B350CF4805E659161341CF0C8
:102220006B350CF4605E861B611171F3990B089598
:10223000881BFCCFFB01DC014150504048F0059069
:102240000D920020C9F701C01D9241505040E0F7A7
:102250000895FB0155915523A9F0BF01DC014D9173
:1022600045174111E1F759F4CD010590002049F0DF
:102270004D9140154111C9F3FB014111EFCF81E0B0
:1022800090E001970895FB01DC0104C08D9101905D
:10229000801921F441505040C8F7881B990B0895CC
:1022A000FB01DC0102C001900D9241505040D8F773
:1022B0000895FB01DC018D9181341CF08B350CF409
:1022C000805E619161341CF06B350CF4605E861B9E
:1022D000611189F3990B0895FB01DC010D90002039
:1022E000E9F7119701900D920020E1F70895FC01A4
:1022F0008191861721F08823D9F79927089531977E
:10230000CF010895FB01DC018D910190801901102E
:10231000D9F3990B0895FB01DC0101900D92002087
:10232000E1F70895FB01DC014150504030F08D9100
:102330000190801919F40020B9F7881B990B0895B2
:10234000FB01DC014150504048F001900D9200200B
:10235000C9F701C01D9241505040E0F70895AEE02A
:10236000B0E0E5EBF1E10C941FCF0E891F898EE000
:102370008C831A8309838FEF9FE79E838D839E0151
:10238000265E3F4FCE010196688D798DA9010AD056
:102390002F813885020F131FF80110822E96E4E07A
:1023A0000C943BCFABE0B0E0E8EDF1E10C9411CF41
:1023B0003C012B015A01FC0117821682838181FDA9
:1023C00003C06FEF7FEFB9C19AE0892E1E01089418
:1023D000211C311CF3012381F20123FD859123FF90
:1023E00081912F01882309F4A5C1853239F423FD99
:1023F000859123FF81912F01853221F490E0B30173
:10240000B7D1E8CF982FFF24EE249924FFE1FF15E0
:10241000D0F09B3269F09C3228F4903259F093321C
:1024200091F40EC09D3249F0903369F441E024C02C
:1024300052E0F52A84E0F82A28C098E0F92A25C05D
:10244000E0E1FE2A22C0F7FC29C0892F80538A30A0
:1024500070F4F6FE05C0989C902C1124980E15C0BF
:10246000E89CE02C1124E80EF0E2FF2A0EC09E3218
:1024700029F4F6FC5FC140E4F42A07C09C3619F445
:1024800050E8F52A02C0983649F4F20123FD9591EF
:1024900023FF91912F01992309F0B8CF892F8554FB
:1024A000833018F08052833038F444E050E0A40EBA
:1024B000B51E5FE359830FC0933631F0933779F03F
:1024C000933509F052C01FC0F5018081898342E035
:1024D00050E0A40EB51E610101E010E011C0F5014D
:1024E000C080D180F6FC03C06FEF7FEF02C0692D82
:1024F00070E042E050E0A40EB51EC6012ED18C0162
:102500005FE7F52213C0F501C080D180F6FC03C05F
:102510006FEF7FEF02C0692D70E042E050E0A40E43
:10252000B51EC6010FD18C0150E8F52AF3FE06C096
:1025300018C080E290E0B3011BD1EA948E2D90E0A8
:1025400008171907B0F30DC0F601F7FC8591F7FEE7
:1025500081916F0190E0B3010BD1E110EA94015039
:1025600010400115110581F7E2C0943611F099363B
:1025700061F5F7FE08C0F501208131814281538168
:1025800084E090E00AC0F501808191819C0144279C
:1025900037FD4095542F82E090E0A80EB91E9FE6CB
:1025A000F92257FF09C050954095309521953F4F2E
:1025B0004F4F5F4FE0E8FE2ACA01B901A1012AE0AE
:1025C00030E002D1D82ED2183FC0953729F41F2D04
:1025D0001F7E2AE030E01DC01F2D197F9F3661F05D
:1025E000903720F4983509F0A5C00FC0903739F026
:1025F000983709F09FC004C028E030E00AC010619D
:1026000014FD146020E130E004C014FD166020E1E8
:1026100032E017FF08C0F5016081718182819381EA
:1026200044E050E008C0F50180819181BC0180E068
:1026300090E042E050E0A40EB51EA101C5D0D82E16
:10264000D2188FE7F82EF122F6FE0BC05EEFF522CE
:10265000D91438F4F4FE07C0F2FC05C08FEEF8225E
:1026600002C01D2D01C0192DF4FE0DC0FE01ED0D9F
:10267000F11D8081803319F499EEF92208C01F5FA3
:10268000F2FE05C003C08F2D867809F01F5F0F2D65
:10269000F3FC13C0F0FE0EC01E1510F09D2C0AC0F6
:1026A0009D2C9E0C911A1E2D05C080E290E0B30176
:1026B0005FD01F5F1E15C8F304C01E1510F4E11A89
:1026C00001C0EE2404FF0EC080E390E0B30150D0BF
:1026D00002FF1BC001FD03C088E790E00EC088E543
:1026E00090E00BC0802F867881F001FF02C08BE262
:1026F00001C080E2F7FC8DE290E0B30139D005C063
:1027000080E390E0B30134D09A94D914C8F3DA94FA
:10271000F101ED0DF11D808190E0B30129D0DD20A4
:10272000B1F705C080E290E0B30122D0EA94EE2038
:10273000C9F750CEF30166817781CB012B96E2E198
:102740000C942DCFFC010590615070400110D8F71A
:10275000809590958E0F9F1F0895FC0161507040E9
:1027600001900110D8F7809590958E0F9F1F0895C6
:102770000F931F93CF93DF938C01EB018B8181FF2C
:102780001BC082FF0DC02E813F818C819D81281747
:10279000390764F4E881F9810193F983E88306C07D
:1027A000E885F985802F1995892B31F48E819F81D9
:1027B00001969F838E8302C00FEF1FEFC801DF9148
:1027C000CF911F910F910895FA01AA27283051F156
:1027D000203181F1E8946F936E7F6E5F7F4F8F4F52
:1027E0009F4FAF4FB1E03ED0B4E03CD0670F781FB1
:1027F000891F9A1FA11D680F791F8A1F911DA11D96
:102800006A0F711D811D911DA11D20D009F46894CE
:102810003F912AE0269F11243019305D3193DEF676
:10282000CF010895462F4770405D4193B3E00FD02C
:10283000C9F7F6CF462F4F70405D4A3318F0495D17
:1028400031FD4052419302D0A9F7EACFB4E0A695FA
:102850009795879577956795BA95C9F7009761051C
:10286000710508959B01AC010A2E06945795479572
:1028700037952795BA95C9F7620F731F841F951F67
:10288000A01D0895FC01128213820895FC0183812A
:10289000882311F081E082830895FC0182818111F7
:1028A00012820895CF93DF93DC01FC01EB55FE4FBC
:1028B000808191810097C9F1019791838083ED0117
:1028C000CC5ADF4FFD01ED58FF4F8BE1019009928B
:1028D0008150E1F7FD01EE5AFF4FAF58BF4F8D9188
:1028E0009C911197A157B04091838083FD01ED58D1
:1028F000FF4F20E030E0AD014B555E4F10C02F5F21
:102900003F4FEF01DF015F968BE10D9009928150FF
:10291000E1F7858D968D329791838083B196DA01A8
:102920008D919C912817390750F3DF91CF9108952D
:10293000FC0188EB95E0918380838781882321F0D7
:10294000CF0104960C94FD6F0895CF92DF92EF9221
:10295000FF920F931F93DF93CF93CDB7DEB76F979F
:102960000FB6F894DEBF0FBECDBF8C016B01095AC4
:102970001F4FD8018C9107551040882321F42FE276
:10298000E22EF12C03C090E5E92EF12CE00EF11EB1
:1029900088EB95E09A8389831C821B8218861D82AE
:1029A000B7016C5F7F4FCE010596A60121E00E9422
:1029B000E976882391F5EAE3F5E0949108C08091E7
:1029C000C00085FFFCCF9093C60031969491992367
:1029D000B1F7EBE3F1E0949108C08091C00085FF6E
:1029E000FCCF9093C600319694919923B1F709C01A
:1029F0008091C00085FFFCCF0894C11CD11C90932E
:102A0000C600F6019081992399F78091C00085FF57
:102A1000FCCF8AE08093C6005AC0F801EB55FE4F08
:102A2000208131812A30310508F040C02F5F3F4FAF
:102A30003183208321503040F90185E0EE0FFF1FE4
:102A40008A95E1F7E21BF30BED58FF4FE00FF11F02
:102A500013C0AF01415E5F4FBF018BE1DB010D9001
:102A6000BD01DA010D92AD018150C1F792918291C1
:102A70003296968F858F7F9721503040BFEF2E3F43
:102A80003B0739F7D801AD58BF4FF70134968BE1BA
:102A900001900D928150E1F70F581F4FF70182818D
:102AA0009381D8018D939C9301571040D801AC5A63
:102AB000BF4FFE0135968BE101900D928150E1F7F9
:102AC0000E5A1F4F8B819C81F80191838083CE0128
:102AD00001962EDF6F960FB6F894DEBF0FBECDBF06
:102AE000CF91DF911F910F91FF90EF90DF90CF90EA
:102AF0000895EF92FF920F931F938C013EECE32E0B
:102B000031E0F32EE80EF91EC7010E94B06FC70135
:102B10000E94FD6FF801108211821F910F91FF90AA
:102B2000EF900895CF92DF92EF92FF920F931F9351
:102B3000CF93DF937C016B01DB010D900020E9F75F
:102B40008D0101501040061B170BEEECF1E0EE0E6C
:102B5000FF1ED7011C92E2E3FEEFEE0EFF1ECB013B
:102B60006EE470E0C4DBEC01009731F4F8013197BA
:102B7000EC0DFD1D86010CC060E270E0B8DB8C013D
:102B80000F5F1F4FCE016AE270E0B1DBFC013197AD
:102B90008DE081838AE082831382C70186539E4F32
:102BA000B8010E94FA778EEC91E0E80EF91ED70189
:102BB0008C91882319F1E3E3F5E0949108C08091AA
:102BC000C00085FFFCCF9093C60031969491992365
:102BD000B1F7E5E6F1E0949108C08091C00085FF6F
:102BE000FCCF9093C600319694919923B1F78091D0
:102BF000C00085FFFCCF8AE08093C600DF91CF91B3
:102C00001F910F91FF90EF90DF90CF900895CF9399
:102C1000DF93EC018B81882309F43BC0EDE8F1E000
:102C2000949108C08091C00085FFFCCF9093C600AE
:102C3000319694919923B1F7CD57DD4F4881598151
:102C40006A817B81C358D24080EB96E02AE030E075
:102C50000E948A2CEBE8F1E0949108C08091C000BA
:102C600085FFFCCF9093C600319694919923B1F7DC
:102C7000C558DD4F488159816A817B8180EB96E0A0
:102C80002AE030E00E948A2C8091C00085FFFCCFB2
:102C900012C0EBE7F1E0949108C08091C00085FF7D
:102CA000FCCF9093C600319694919923B1F780910F
:102CB000C00085FFFCCF8AE08093C600DF91CF91F2
:102CC00008952F923F924F925F926F927F928F92D0
:102CD0009F92AF92BF92CF92DF92EF92FF920F93AB
:102CE0001F93DF93CF93CDB7DEB7AC970FB6F894B1
:102CF000DEBF0FBECDBF5C014B01FC018381882389
:102D000009F43BC1C50182539E4F0E94FD6FF5013E
:102D100012821A8A1D8A198A188A88EB95E09F8781
:102D20008E875EE4C52ED12CCA0CDB1C2FE230E06E
:102D3000A20EB31EF601B182A08221ED3FEFA20EDA
:102D4000B31EF40180818F3209F08DC0C4016FE29F
:102D500070E0CDDA7C010894E11CF11C3E0108947E
:102D6000611C711C260142E1242E312C2C0E3D1ECB
:102D700075C0C7016FE270E0BADA6C01009709F420
:102D800080C0E816F90608F07CC08C010E191F09F6
:102D9000C301B701A801D4DA060D171DF80110828E
:102DA000F30107C08091C00085FFFCCF319690935E
:102DB000C60090819923B1F78091C00085FFFCCFB8
:102DC000FAE0F093C600F20160817181611571052E
:102DD00019F460E070E002C06C5F7F4FC101A30195
:102DE00021E00E94E976882371F5E9ECF1E0949105
:102DF00008C08091C00085FFFCCF9093C60031963B
:102E000094919923B1F7FE01319607C08091C000DB
:102E100085FFFCCF31969093C60090819923B1F73E
:102E2000E7ECF1E0949108C08091C00085FFFCCFF1
:102E30009093C600319694919923B1F78091C00088
:102E400085FFFCCF94C02EE030E02C0F3D1FF20137
:102E50003183208376010894E11CF11CE114F10414
:102E600009F087CF0BC080E590E0A80EB91EF601EF
:102E7000B182A08220EB3FEFA20EB31ED82C092D09
:102E800002C0DE2C0F2D8EE490E0A80EB91EF501D5
:102E90008081918122EB3FEFA20EB31E009719F4BF
:102EA00080E090E001C004966D2D702F0E94B577F0
:102EB000882371F1E9EBF1E0949108C08091C000A2
:102EC00085FFFCCF9093C600319694919923B1F77A
:102ED0008D2D902F9C01F90107C08091C00085FFC6
:102EE000FCCF31969093C60090819923B1F78091E1
:102EF000C00085FFFCCF8AE08093C60083E892E0A3
:102F0000A80EB91EF501108211821282138232C0FE
:102F1000E1EAF1E0949108C08091C00085FFFCCF08
:102F20009093C600319694919923B1F78D2D902FEF
:102F30009C01F90107C08091C00085FFFCCF31964C
:102F40009093C60090819923B1F7EFE9F1E0949155
:102F500008C08091C00085FFFCCF9093C6003196D9
:102F600094919923B1F78091C00085FFFCCF8AE04E
:102F70008093C600CE010E96DBDCAC960FB6F894BB
:102F8000DEBF0FBECDBFCF91DF911F910F91FF909C
:102F9000EF90DF90CF90BF90AF909F908F907F90F9
:102FA0006F905F904F903F902F900895BF92CF9277
:102FB000DF92EF92FF920F931F93CF93DF938C01D9
:102FC000EB018FE28993EE24E394FF2475EAC72E88
:102FD00071E0D72EC00ED11E6FE1B62E14C0FB9C3F
:102FE000C00111248D589F4F800F911FBE010E9478
:102FF0000D7002C02196E3948881882319F08CE833
:103000008E15C0F7F3942F2D30E0F6018081918169
:103010002817390720F3E7FC07C0C80182539E4FE9
:10302000BE010E940D7001C01882DF91CF911F91E7
:103030000F91FF90EF90DF90CF90BF900895EF92A7
:10304000FF920F931F93CF93DF938C01FC011382A8
:1030500086A9882321F0C801C3960E94FD6FE7EA84
:10306000EE2EE1E0FE2EE00EF11EC70160E045E32A
:103070000E94AC6D882309F5EAE3F5E0949108C05D
:103080008091C00085FFFCCF9093C600319694914B
:103090009923B1F7E2E1F3E0949108C08091C00078
:1030A00085FFFCCF9093C600319694919923B1F798
:1030B0008091C00085FFFCCF7DC0E801C455DE4F84
:1030C000CE01B70141E00E948B78882341F5CE0103
:1030D000B70140E00E948B78882309F5E3E3F5E02F
:1030E000949108C08091C00085FFFCCF9093C600EA
:1030F000319694919923B1F7EFEFF2E0949108C0E3
:103100008091C00085FFFCCF9093C60031969491CA
:103110009923B1F78091C00085FFFCCF4BC0C80157
:10312000C396BE010E94EF72882309F5E3E3F5E040
:10313000949108C08091C00085FFFCCF9093C60099
:10314000319694919923B1F7EFEEF2E0949108C093
:103150008091C00085FFFCCF9093C600319694917A
:103160009923B1F78091C00085FFFCCF23C081E097
:10317000F8018383EAE3F5E0949108C08091C000F0
:1031800085FFFCCF9093C600319694919923B1F7B7
:10319000E4EEF2E0949108C08091C00085FFFCCF7E
:1031A0009093C600319694919923B1F78091C00015
:1031B00085FFFCCF8AE08093C600D801AC5ABF4F90
:1031C000F801F3968BE101900D928150E1F7F8013F
:1031D00081A992A90E5A1F4FF8019183808302554D
:1031E0001040C8018F96025B1F4FF80191838083C6
:1031F000DF91CF911F910F91FF90EF9008952F9243
:103200003F924F925F926F927F929F92AF92BF9246
:10321000CF92DF92EF92FF920F931F93DF93CF93A2
:10322000CDB7DEB7CC55D0400FB6F894DEBF0FBE99
:10323000CDBF6C01662311F527E832E0C20ED31E24
:10324000D6018C91E9E7FDEFCE0EDF1E882309F44D
:10325000E2C02FE732E0C20ED31ED601ED90FD9002
:103260000D911C91E1E8FDEFCE0EDF1E0E949EC67F
:10327000E616F7060807190708F4CDC027E832E07C
:10328000C20ED31ED6011C92E9E7FDEFCE0EDF1E63
:10329000D60113968C91882339F4C601D0DEF6014D
:1032A0008381882309F4B7C000D000D0EDB7FEB702
:1032B00031967E010894E11CF11CADB7BEB71296A1
:1032C000FC92EE9211978CE591E093838283D60174
:1032D0009D968D919C919E979583848340D887017C
:1032E000EDB7FEB736960FB6F894FEBF0FBEEDBF32
:1032F00057010AC0D8018C91992787FD90950E94AB
:1033000006CFF80181938F01F50101900020E9F7C4
:103310003197EA19FB09802F8E198E175CF313E39E
:10332000A12EB12CAC0CBD1CC50140E050E060E00A
:1033300070E00E94E66E9924BDE3EB2EF12CEC0EBA
:10334000FD1E2E010894411C511CAFE16A2E712C08
:103350006C0E7D1EF5E52F2EF1E03F2E42C0D80108
:103360008C9190E00E9406CFF80181938F01D701E4
:103370000D900020E9F71197AE19BF09802F8E1923
:103380008A176CF327968FAD27978E3751F1C701B7
:10339000B20145E050E00E949211009711F500D073
:1033A00000D0EDB7FEB73196ADB7BEB712967C929E
:1033B0006E92119733822282558244820E94AF110D
:1033C000EDB7FEB736960FB6F894FEBF0FBEEDBF51
:1033D000C3010E947B5381E591E00E94CC3899247F
:1033E0009394C501B70140E050E00E940E72181698
:1033F00014F48701BCCF992041F48FEF9FEFD601E1
:103400009E969C938E939D9706C0F60185A596A5E2
:10341000019696A785A7C45ADF4F0FB6F894DEBF72
:103420000FBECDBFCF91DF911F910F91FF90EF9015
:10343000DF90CF90BF90AF909F907F906F905F9004
:103440004F903F902F9008952F923F924F925F920E
:103450006F927F928F929F92AF92BF92CF92DF92A4
:10346000EF92FF920F931F93DF93CF93CDB7DEB709
:10347000CF58D0400FB6F894DEBF0FBECDBF8C0141
:103480002B016A01C757DF4F39832883C958D040C1
:1034900084E090E0C80ED91EF8017196C957DF4F3D
:1034A000F983E883C758D04044E0642E712C600E45
:1034B000711ECA57DF4F1882C658D04036E6E32E39
:1034C000F12CEC0EFD1EC7010B96C557DF4F9983FB
:1034D0008883CB58D04028E8822E22E0922E800E9E
:1034E000911E9AE8A92E92E0B92EA00EB11E87E493
:1034F000282E312C2C0E3D1EF1013496C357DF4F80
:10350000F983E883CD58D040EAE3F5E08491C157D0
:10351000DF4F8883CF58D04053C1F7018385482FB0
:1035200050E0BA01687170706031710509F056C1E0
:10353000F401208131812130310509F44FC122305D
:10354000310509F44BC1F701DE01119690819032EB
:1035500039F08E2F8E19883011F48EE28D939D9361
:103560003196C557DF4F88819981CB58D040E817F5
:10357000F90761F71C921E86F2018081882331F4DD
:10358000CE010E9660E072E00E946C11CE010E96A4
:10359000B2010E946C11CE010E96BE016F5F7F4F8B
:1035A0000E946C11CE010E9660E072E00E946C11D8
:1035B0001CA61FA61BA61AA688EB95E099A788A7AC
:1035C000CE018C96B601AE014F5F5F4F21E00E94A5
:1035D000E976882309F03FC0F40180819181892B2D
:1035E000D1F5C157DF4F9881CF58D040EAE3F5E0DD
:1035F00008C08091C00085FFFCCF9093C600319633
:1036000094919923B1F7E2E0F2E007C08091C00005
:1036100085FFFCCF31969093C60090819923B1F736
:103620008091C00085FFFCCFFAE0F093C600FE0158
:10363000319607C08091C00085FFFCCF31969093F2
:10364000C60090819923B1F78091C00085FFFCCF1F
:103650008AE08093C600C357DF4FA881B981CD5857
:10366000D040FE01BC968BE101900D928150E1F7B4
:103670008AA59BA5F1019383828388EB95E09183D2
:103680008083C801BE01625F7F4FA10120E030E06E
:10369000DBDEC1014DD9CE0188964AD991C09E3258
:1036A00009F48EC09F3509F48BC0F80191899E32D0
:1036B00009F486C09F3509F483C043FD81C080E0D2
:1036C0006031710509F481E0F80184A7882349F489
:1036D000F7018085873409F073C081858E3709F43E
:1036E0006FC0D301F7018081803241F08E2F8E1997
:1036F000883011F48EE28D9380818D933196C55779
:10370000DF4F88819981CB58D040E817F90759F7E6
:103710001C92F40180819181009701F5F20107C0AC
:103720008091C00085FFFCCF31969093C6009081B8
:103730009923B1F7F30107C08091C00085FFFCCF4A
:1037400031969093C60090819923B1F78091C00083
:1037500085FFFCCFFAE0F093C60032C081309105BE
:1037600039F4F5018081918101969183808328C08D
:10377000029731F5C757DF4F88819981C958D040EA
:10378000009731F0B3010E945911892B71F42BC0BD
:10379000CA57DF4F9881C658D040292F30E0F50135
:1037A0008081918128173907F1F0CA57DF4FF881DE
:1037B000C658D040FF5FCA57DF4FF883C658D04085
:1037C000C601B701C957DF4F48815981C758D0405A
:1037D0000E940E7218160CF4A0CE05C0F70190815D
:1037E000992309F05CCFC157DF4F0FB6F894DEBFC5
:1037F0000FBECDBFCF91DF911F910F91FF90EF9042
:10380000DF90CF90BF90AF909F908F907F906F9000
:103810005F904F903F902F900895EF92FF920F93FB
:103820001F93DF93CF93CDB7DEB76F970FB6F894A2
:10383000DEBF0FBECDBF7C018C01025B1F4F805BE2
:103840009F4FF8019183808328E832E0E20EF31E57
:1038500021E030E0F701219331937F011182108242
:1038600026E73DEFE20EF31E049640E050E060E0F4
:1038700070E00E94E66EF80120813181DE0115962C
:10388000F90134968BE101900D928150E1F7F90135
:10389000828193819C838B8388EB95E09A838983D3
:1038A000C70165E172E08E010F5F1F4FA80120E0A4
:1038B00030E0CADDC8013CD8F701E657FD4F8081F2
:1038C00091816F960FB6F894DEBF0FBECDBFCF913A
:1038D000DF911F910F91FF90EF900895CF92DF92AB
:1038E000EF92FF920F931F93DF93CF93CDB7DEB785
:1038F0006F970FB6F894DEBF0FBECDBF7C016A0193
:103900008C01025B1F4F805B9F4FF8019183808386
:1039100028E832E0E20EF31E22E030E0F7012193C6
:1039200031937F017183608326E73DEFE20EF31E42
:10393000049640E050E060E070E00E94E66EF8011E
:1039400020813181DE011596F90134968BE10190D9
:103950000D928150E1F7F901828193819C838B83E1
:1039600088EB95E09A838983C70165E172E08E0157
:103970000F5F1F4FA801960167DDC8010E949814D0
:103980006F960FB6F894DEBF0FBECDBFCF91DF911B
:103990001F910F91FF90EF90DF90CF9008952F929D
:1039A0003F924F925F926F927F928F929F92AF92CF
:1039B000BF92CF92DF92EF92FF920F931F93DF930C
:1039C000CF93CDB7DEB7AD970FB6F894DEBF0FBE7D
:1039D000CDBF7C013B014DA7DC0113968C91882360
:1039E00009F450C3E1EDF1E0EE0EFF1ED7018C911A
:1039F000EFE2FEEFEE0EFF1E882309F418C122232A
:103A000009F0E0C029EE31E0E20EF31ED7018C91FF
:103A1000E7E1FEEFEE0EFF1E882371F1E3E3F5E030
:103A2000949108C08091C00085FFFCCF9093C600A0
:103A3000319694919923B1F7E1EAF2E0949108C0AC
:103A40008091C00085FFFCCF9093C6003196949181
:103A50009923B1F780EB96E061E070E04AE050E036
:103A60000E94D92C8091C00085FFFCCF8AE0809312
:103A7000C6000E943C2F06C3EAE3F5E0949108C01B
:103A80008091C00085FFFCCF9093C6003196949141
:103A90009923B1F7E8E8F2E0949108C08091C00062
:103AA00085FFFCCF9093C600319694919923B1F78E
:103AB000F30107C08091C00085FFFCCF3196909341
:103AC000C60090819923B1F7EDE7F2E0949108C028
:103AD0008091C00085FFFCCF9093C60031969491F1
:103AE0009923B1F7C7012EEE31E0E20EF31EB701C4
:103AF0005DDA4BEF5FEFE40EF51ED7019C91E7E135
:103B0000FEEFEE0EFF1E8DE8989FF0011124E251AA
:103B1000FE4FEE0DFF1D07C08091C00085FFFCCF5A
:103B200031969093C60090819923B1F7E7E7F2E0D0
:103B3000949108C08091C00085FFFCCF9093C6008F
:103B4000319694919923B1F723E832E0E20EF31E07
:103B5000D7014D915D916D917C91EDE7FDEFEE0EFA
:103B6000FF1E80EB96E02AE030E00E948A2C8091D4
:103B7000C00085FFFCCF8AE08093C600A7014751B3
:103B80005E4FDA012C91E22FF0E0EE0FFF1FEE0FF7
:103B9000FF1FEE0DFF1DE651FE4F83E892E0E80E99
:103BA000F91ED701AD90BD90CD90DC908DE79DEFD3
:103BB000E80EF91EA082B182C282D3822F5FDA01A1
:103BC0002C932FC0EAE3F5E0949108C08091C000E7
:103BD00085FFFCCF9093C600319694919923B1F75D
:103BE000E6E6F2E0949108C08091C00085FFFCCF2A
:103BF0009093C600319694919923B1F7F30107C0D1
:103C00008091C00085FFFCCF31969093C6009081D3
:103C10009923B1F78091C00085FFFCCF8AE08093A3
:103C2000C600C70182539E4F0E94FD6F39C0E9EE66
:103C3000F1E0EE0EFF1ED7011C92E7E1FEEFEE0E63
:103C4000FF1EEAE3F5E0949108C08091C00085FF73
:103C5000FCCF9093C600319694919923B1F7E5E596
:103C6000F2E0949108C08091C00085FFFCCF909352
:103C7000C600319694919923B1F7F30107C0809162
:103C8000C00085FFFCCF31969093C60090819923A8
:103C9000B1F78091C00085FFFCCF8AE08093C60019
:103CA000D70112961C921A8A1D8A198A188A88EBE3
:103CB00095E09F878E876EE4A62EB12CAE0CBF1CBC
:103CC000EFE2F0E0EE0EFF1ED501ED92FC92E1ED89
:103CD000FFEFEE0EFF1ED3018C918F3209F090C0E2
:103CE000C3016FE270E00E9477116C010894C11C5F
:103CF000D11C4E010894811C911C250152E1252EF6
:103D0000312C2C0E3D1E77C0C6016FE270E00E9480
:103D100077115C01009709F480C0C816D90608F035
:103D20007CC08C010C191D09C401B601A8010E94B8
:103D3000A011080D191DF8011082F40107C080912F
:103D4000C00085FFFCCF31969093C60090819923E7
:103D5000B1F78091C00085FFFCCFFAE0F093C60078
:103D6000D2016D917C916115710519F460E070E0EC
:103D700002C06C5F7F4FC101A40121E00E94E9767F
:103D8000882371F5E1E4F2E0949108C08091C000CD
:103D900085FFFCCF9093C600319694919923B1F79B
:103DA000FE01319607C08091C00085FFFCCF31969F
:103DB0009093C60090819923B1F7EFE3F2E09491DC
:103DC00008C08091C00085FFFCCF9093C60031965B
:103DD00094919923B1F78091C00085FFFCCF23C156
:103DE0002EE030E02C0F3D1FF2013183208365016E
:103DF0000894C11CD11CC114D10409F085CF0BC09B
:103E000040E550E0E40EF51ED501ED92FC92E0EBAA
:103E1000FFEFEE0EFF1E830101C08601F701E25B9A
:103E2000FF4F2DA5222309F4BFC060817181611568
:103E3000710519F460E070E002C06C5F7F4FC7014C
:103E400082539E4FA80121E00E94E976882309F45D
:103E50007EC04FED51E0E40EF51ED7014D915D910E
:103E60006D917C91ECE9F0E0EE0EFF1ED7014D93D1
:103E70005D936D937C931397E5E8FDEFEE0EFF1EC7
:103E8000E1E3F2E0949108C08091C00085FFFCCF8F
:103E90009093C600319694919923B1F7F80107C029
:103EA0008091C00085FFFCCF31969093C600908131
:103EB0009923B1F7E9E2F2E0949108C08091C00043
:103EC00085FFFCCF9093C600319694919923B1F76A
:103ED00080EB96E02AE030E00E948A2C8091C000BE
:103EE00085FFFCCF8AE08093C60023E832E0E20E33
:103EF000F31ED7011D921D921D921C921397EDE7A0
:103F0000FDEFEE0EFF1EEBE1F2E0949108C0809110
:103F1000C00085FFFCCF9093C60031969491992301
:103F2000B1F78091C00085FFFCCF8AE08093C60086
:103F3000C70160E070E0A801D1DCD70151968C91F7
:103F4000882309F498C087010F5E1F4F94C0E7E0F3
:103F5000F2E0949108C08091C00085FFFCCF90935F
:103F6000C600319694919923B1F7F80107C080916A
:103F7000C00085FFFCCF31969093C60090819923B5
:103F8000B1F7E5E0F2E0949108C08091C00085FFB0
:103F9000FCCF9093C600319694919923B1F780910C
:103FA000C00085FFFCCF3FC0608171816115710544
:103FB00019F460E070E002C06C5F7F4FC70182536C
:103FC0009E4FA80126E50E94E976882381F5E1EF5E
:103FD000F1E0949108C08091C00085FFFCCF9093E0
:103FE000C600319694919923B1F7F80107C08091EA
:103FF000C00085FFFCCF31969093C6009081992335
:10400000B1F7EFEEF1E0949108C08091C00085FF18
:10401000FCCF9093C600319694919923B1F780918B
:10402000C00085FFFCCF8AE08093C60027C081E0F6
:10403000F7018083EDEDF1E0949108C08091C0001C
:1040400085FFFCCF9093C600319694919923B1F7E8
:10405000F30107C08091C00085FFFCCF319690939B
:10406000C60090819923B1F78091C00085FFFCCFF5
:104070008AE08093C600C8010E948FB2CE010E96DE
:104080000E949814AD960FB6F894DEBF0FBECDBF58
:10409000CF91DF911F910F91FF90EF90DF90CF9024
:1040A000BF90AF909F908F907F906F905F904F9058
:1040B0003F902F900895EF92FF920F931F93CF930D
:1040C000DF93EC010E94CE7D8E0107511E4FD80177
:1040D0008C91BEECEB2EB1E0FB2EEC0EFD1E882386
:1040E00099F1C7010E94FD6FF80160816150608302
:1040F0008DE8689FB001112462517E4F6C0F7D1FC7
:10410000CE0141E021E04BDCD801EC91F0E0EE0F74
:10411000FF1FEE0FFF1FEC0FFD1FE651FE4F40810A
:10412000518162817381CD57DD4F488359836A8302
:104130007B83C358D240C7010E94E66E8B818823DF
:1041400089F181E08A832EC00E94AC7DC7010E9464
:10415000FD6F1A828FE291E00E94CC388091D10BE2
:10416000882301F11092D10B80918609C82FD0E0ED
:10417000CC0FDD1FCC5EDC4E68817981882777FD0E
:104180008095982F0E9465CB2091090530910A05F2
:1041900040910B0550910C050E94D1CC181614F4D7
:1041A00019821882DF91CF911F910F91FF90EF90AC
:1041B0000895FC0181E08183CF0140E021E0EFCB55
:1041C000EF92FF920F931F93DF93CF93CDB7DEB79C
:1041D0006F970FB6F894DEBF0FBECDBF7C0188E8A5
:1041E00092E0E80EF91EF7011182108288E79DEF38
:1041F000E80EF91E87010D5C1F4FC80140E050E03A
:1042000060E070E00E94E66EDE011596F8018BE139
:1042100001900D928150E1F7F70181A992A99C8349
:104220008B8388EB95E09A838983C70165E172E00F
:104230008E010F5F1F4FA80120E030E005D9C801B3
:104240000E9498146F960FB6F894DEBF0FBECDBFD4
:10425000CF91DF911F910F91FF90EF9008950F93F1
:104260001F93CF93DF93DC01D3961C92D397D696FE
:104270001C92D697D2961C921E92D19788EB95E00D
:10428000D0969C938E939F97AC5ABF4F1C921396D7
:104290001C92A755B040FD01E05BFF4FAE5ABF4FE7
:1042A00011961C921E92A255B04091838083ED011D
:1042B000C159DF4FFE0120E030E0482F1482178201
:1042C0001382128240839183215E3F4F7F9681E06B
:1042D0002633380799F7A855BE4F89E18C9313967A
:1042E0001C9258961C921B961C9213961C92A15DD0
:1042F000B140FD01E653FE4FA453BE4F11961C92F0
:104300001E9240839183A155BF4F1D921D921D9215
:104310001C92139718961D921D921D921C92139732
:10432000A358B24012961C92129713961C921397A0
:104330001C9211961C9211978D0101581D4FF80186
:104340001082118212821382AB55BE4F11961C92BD
:104350001E92AC5BBF4F1C92FE01C90111920197E6
:10436000E9F7A256BF4F81E08C93A758B2409E96C2
:104370001C921E929D970E949EC668577C4E8F4F3E
:104380009F4FF8016083718382839383DF91CF9184
:104390001F910F910895DF93CF93CDB7DEB72A9782
:1043A0000FB6F894DEBF0FBECDBF8091160290917C
:1043B0001702A0911802B09119028B839C83AD83E0
:1043C000BE83FE01339624E630E08081F999FECF6A
:1043D0001FBA32BD21BD80BD0FB6F894FA9AF99A82
:1043E0000FBE2F5F3F4F2836310511F03196EDCFCC
:1043F000E5E7FBE08081F999FECF1FBA32BD21BD10
:1044000080BD0FB6F894FA9AF99A0FBE2F5F3F4F0E
:104410002837310511F03196EDCFE5E6FBE08081DC
:10442000F999FECF1FBA32BD21BD80BD0FB6F894F9
:10443000FA9AF99A0FBE2F5F3F4F2838310511F0D5
:104440003196EDCFE5E8FBE08081F999FECF1FBA08
:1044500032BD21BD80BD0FB6F894FA9AF99A0FBE0D
:104460002F5F3F4F2839310511F03196EDCFE9E943
:10447000FBE08081F999FECF1FBA32BD21BD80BD1E
:104480000FB6F894FA9AF99A0FBE2F5F3F4F2C3966
:10449000310511F03196EDCFEDE9FBE08081F9991E
:1044A000FECF1FBA32BD21BD80BD0FB6F894FA9A77
:1044B000F99A0FBE2F5F3F4F203A310511F0319628
:1044C000EDCFE5E9FBE08081F999FECF1FBA32BD5F
:1044D00021BD80BD0FB6F894FA9AF99A0FBE2F5FEE
:1044E0003F4F243A310511F03196EDCFEDEAFBE074
:1044F0008081F999FECF1FBA32BD21BD80BD0FB6B4
:10450000F894FA9AF99A0FBE2F5F3F4F283A310577
:1045100011F03196EDCFE1E6FBE08081F999FECF15
:104520001FBA32BD21BD80BD0FB6F894FA9AF99A30
:104530000FBE2F5F3F4F2C3A310511F03196EDCF72
:10454000E1EAFBE08081F999FECF1FBA32BD21BDBF
:1045500080BD0FB6F894FA9AF99A0FBE2F5F3F4FBD
:10456000203B310511F03196EDCFE5EAFBE080818B
:10457000F999FECF1FBA32BD21BD80BD0FB6F894A8
:10458000FA9AF99A0FBE2F5F3F4F243B310511F085
:104590003196EDCFE9EAFBE08081F999FECF1FBAB1
:1045A00032BD21BD80BD0FB6F894FA9AF99A0FBEBC
:1045B0002F5F3F4F283B310511F03196EDCFE7E6F5
:1045C000F9E08081F999FECF1FBA32BD21BD80BDCF
:1045D0000FB6F894FA9AF99A0FBE2F5F3F4F243C1A
:1045E000310511F03196EDCFE7E6F3E18081F999DD
:1045F000FECF1FBA32BD21BD80BD0FB6F894FA9A26
:10460000F99A0FBE2F5F3F4F263C310511F03196CE
:10461000EDCFE9E6F3E18081F999FECF1FBA32BD13
:1046200021BD80BD0FB6F894FA9AF99A0FBE2F5F9C
:104630003F4F283C310511F03196EDCFEBE6F3E129
:104640008081F999FECF1FBA32BD21BD80BD0FB662
:10465000F894FA9AF99A0FBE2F5F3F4F2A3C310522
:1046600011F03196EDCFEDE6F3E18081F999FECFBF
:104670001FBA32BD21BD80BD0FB6F894FA9AF99ADF
:104680000FBE2F5F3F4F2C3C310511F03196EDCF1F
:10469000EFE6F3E18081F999FECF1FBA32BD21BD6B
:1046A00080BD0FB6F894FA9AF99A0FBE2F5F3F4F6C
:1046B0002E3C310511F03196EDCFE1E7F3E1808139
:1046C000F999FECF1FBA32BD21BD80BD0FB6F89457
:1046D000FA9AF99A0FBE2F5F3F4F203D310511F036
:1046E0003196EDCFE3E7F3E18081F999FECF1FBA70
:1046F00032BD21BD80BD0FB6F894FA9AF99A0FBE6B
:104700002F5F3F4F223D310511F03196EDCFE2E8AA
:10471000F9E08081F999FECF1FBA32BD21BD80BD7D
:104720000FB6F894FA9AF99A0FBE2F5F3F4F263DC5
:10473000310511F03196EDCFEAE1F5E08081F9998C
:10474000FECF1FBA32BD21BD80BD0FB6F894FA9AD4
:10475000F99A0FBE2F5F3F4F2A3D310511F0319678
:10476000EDCFEEE1F5E08081F999FECF1FBA32BDC1
:1047700021BD80BD0FB6F894FA9AF99A0FBE2F5F4B
:104780003F4F2E3D310511F03196EDCFE2E2F5E0DD
:104790008081F999FECF1FBA32BD21BD80BD0FB611
:1047A000F894FA9AF99A0FBE2F5F3F4F223E3105D7
:1047B00011F03196EDCF80E290E09A838983FE017B
:1047C00031968081F999FECF1FBA32BD21BD80BDDF
:1047D0000FB6F894FA9AF99A0FBE233E310521F0EC
:1047E000319623EE30E0EDCF20915609F999FECFB6
:1047F0001FBA84EE90E092BD81BD20BD0FB6F89443
:10480000FA9AF99A0FBEE5EEF4E085EE90E0208189
:10481000F999FECF1FBA92BD81BD20BD0FB6F894A5
:10482000FA9AF99A0FBE883E910519F001963196D1
:10483000EECF80911A0290911B02A0911C02B091C0
:104840001D028F839887A987BA87FE01379684E671
:1048500090E02081F999FECF1FBA92BD81BD20BDA5
:104860000FB6F894FA9AF99A0FBE8736910519F0A7
:1048700001963196EECFEAE3F5E0949108C080917D
:10488000C00085FFFCCF9093C60031969491992388
:10489000B1F7E3E2F5E0949108C08091C00085FF94
:1048A000FCCF9093C600319694919923B1F78091F3
:1048B000C00085FFFCCF8AE08093C6002A960FB621
:1048C000F894DEBF0FBECDBFCF91DF910895DF9387
:1048D000CF93CDB7DEB7E0970FB6F894DEBF0FBE2B
:1048E000CDBFDE011196E8E6F5E080E101900D9282
:1048F0008150E1F7DE015196E8E5F5E080E10190B5
:104900000D928150E1F7DE019196E8E4F5E080E157
:1049100001900D928150E1F789819A81AB81BC8130
:104920008093750B9093760BA093770BB093780BD5
:1049300089899A89AB89BC898093650B9093660BB2
:10494000A093670BB093680B89A19AA1ABA1BCA1FE
:104950008093850B9093860BA093870BB093880B65
:104960008D819E81AF81B8858093790B90937A0B6E
:10497000A0937B0BB0937C0B8D899E89AF89B88DFA
:104980008093690B90936A0BA0936B0BB0936C0BA5
:104990008DA19EA1AFA1B8A58093890B90938A0B9E
:1049A000A0938B0BB0938C0B89859A85AB85BC85C6
:1049B00080937D0B90937E0BA0937F0BB093800B25
:1049C000898D9A8DAB8DBC8D80936D0B90936E0B02
:1049D000A0936F0BB093700B89A59AA5ABA5BCA54E
:1049E00080938D0B90938E0BA0938F0BB093900BB5
:1049F0008D859E85AF85B8898093810B9093820BBE
:104A0000A093830BB093840B8D8D9E8DAF8DB8A139
:104A10008093710B9093720BA093730BB093740BF4
:104A20008DA59EA5AFA5B8A98093910B9093920BED
:104A3000A093930BB093940B0E94975A80E090E060
:104A4000AAEFB4E48093990B90939A0BA0939B0BDD
:104A5000B0939C0B80939D0B90939E0BA0939F0B08
:104A6000B093A00B20E030E040E050E02093950BA5
:104A70003093960B4093970B5093980B80E29EE4F3
:104A8000A0E0B0E08093610B9093620BA093630B66
:104A9000B093640B2093AD0B3093AE0B4093AF0BF0
:104AA0005093B00B80E090E0A0E2B1E48093A10BC2
:104AB0009093A20BA093A30BB093A40B8DEC9CEC52
:104AC000ACECBEE38093A50B9093A60BA093A70B31
:104AD000B093A80B80E090E0A0EAB0E48093A90B2B
:104AE0009093AA0BA093AB0BB093AC0B20936F09E0
:104AF00030937009409371095093720920936B09A8
:104B000030936C0940936D0950936E0920936709A7
:104B1000309368094093690950936A0980EF90E0E7
:104B2000909368138093671382ED90E090936A13DB
:104B30008093691310926C1310926B1310926E1382
:104B400010926D138BEE90E09093701380936F131F
:104B500010927213109271131092741310927313B7
:104B60008BE794E1ACECB1E480931A0590931B05BC
:104B7000A0931C05B0931D056EEA77E481E890E4EC
:104B80000E94F28560931E0570931F058093200597
:104B90009093210565E87BEE80E292E40E94FE8519
:104BA0006093220570932305809324059093250537
:104BB0000E94098580E090E0A0E8BFE3809326058D
:104BC00090932705A0932805B093290510925609C4
:104BD00080E090E0A0E4B0E48093E5049093E604E4
:104BE000A093E704B093E8040E94E82EEAE3F5E01E
:104BF000949108C08091C00085FFFCCF9093C600BF
:104C0000319694919923B1F7EFE1F3E0949108C0C4
:104C10008091C00085FFFCCF9093C600319694919F
:104C20009923B1F78091C00085FFFCCF8AE0809383
:104C3000C600E0960FB6F894DEBF0FBECDBFCF9191
:104C4000DF9108950F931F93DF93CF93CDB7DEB716
:104C50002A970FB6F894DEBF0FBECDBF80911A021F
:104C600090911B02A0911C02B0911D028F83988726
:104C7000A987BA87FE01339604E610E0F999FECFC2
:104C800012BD01BDF89A80B580830F5F1F4F0836B3
:104C9000110511F03196F2CFCE010796BE016D5F7E
:104CA0007F4F43E050E00E949211009709F0C5C188
:104CB000E5E7FBE0F999FECF12BD01BDF89A80B59A
:104CC00080830F5F1F4F0837110511F03196F2CF27
:104CD000E5E6FBE0F999FECF12BD01BDF89A80B57B
:104CE00080830F5F1F4F0838110511F03196F2CF06
:104CF000E5E8FBE0F999FECF12BD01BDF89A80B559
:104D000080830F5F1F4F0839110511F03196F2CFE4
:104D10000E94975AE9E9FBE0F999FECF12BD01BD67
:104D2000F89A80B580830F5F1F4F0C39110511F081
:104D30003196F2CFEDE9FBE0F999FECF12BD01BD4E
:104D4000F89A80B580830F5F1F4F003A110511F06C
:104D50003196F2CFE5E9FBE0F999FECF12BD01BD36
:104D6000F89A80B580830F5F1F4F043A110511F048
:104D70003196F2CFEDEAFBE0F999FECF12BD01BD0D
:104D8000F89A80B580830F5F1F4F083A110511F024
:104D90003196F2CFE1E6FBE0F999FECF12BD01BDFD
:104DA000F89A80B580830F5F1F4F0C3A110511F000
:104DB0003196F2CFE1EAFBE0F999FECF12BD01BDD9
:104DC000F89A80B580830F5F1F4F003B110511F0EB
:104DD0003196F2CFE5EAFBE0F999FECF12BD01BDB5
:104DE000F89A80B580830F5F1F4F043B110511F0C7
:104DF0003196F2CFE9EAFBE0F999FECF12BD01BD91
:104E0000F89A80B580830F5F1F4F083B110511F0A2
:104E10003196F2CFE7E6F9E0F999FECF12BD01BD78
:104E2000F89A80B580830F5F1F4F043C110511F085
:104E30003196F2CFE7E6F3E1F999FECF12BD01BD5D
:104E4000F89A80B580830F5F1F4F063C110511F063
:104E50003196F2CFE9E6F3E1F999FECF12BD01BD3B
:104E6000F89A80B580830F5F1F4F083C110511F041
:104E70003196F2CFEBE6F3E1F999FECF12BD01BD19
:104E8000F89A80B580830F5F1F4F0A3C110511F01F
:104E90003196F2CFEDE6F3E1F999FECF12BD01BDF7
:104EA000F89A80B580830F5F1F4F0C3C110511F0FD
:104EB0003196F2CFEFE6F3E1F999FECF12BD01BDD5
:104EC000F89A80B580830F5F1F4F0E3C110511F0DB
:104ED0003196F2CFE1E7F3E1F999FECF12BD01BDC2
:104EE000F89A80B580830F5F1F4F003D110511F0C8
:104EF0003196F2CFE3E7F3E1F999FECF12BD01BDA0
:104F0000F89A80B580830F5F1F4F023D110511F0A5
:104F10003196F2CFE2E8F9E0F999FECF12BD01BD7A
:104F2000F89A80B580830F5F1F4F063D110511F081
:104F30003196F2CFEAE1F5E0F999FECF12BD01BD5D
:104F4000F89A80B580830F5F1F4F0A3D110511F05D
:104F50003196F2CFEEE1F5E0F999FECF12BD01BD39
:104F6000F89A80B580830F5F1F4F0E3D110511F039
:104F70003196F2CFE2E2F5E0F999FECF12BD01BD24
:104F8000F89A80B580830F5F1F4F023E110511F024
:104F90003196F2CFFE013196F999FECF12BD01BDD7
:104FA000F89A80B58083033E110521F0319603EE17
:104FB00010E0F2CFF999FECF84EE90E092BD81BD72
:104FC000F89A80B580935609E5EEF4E025EE30E0DE
:104FD000F999FECF32BD21BDF89A80B58083283E75
:104FE000310521F02F5F3F4F3196F2CFF1D60E946D
:104FF0000985EAE3F5E0949108C08091C00085FF3F
:10500000FCCF9093C600319694919923B1F7E1E4D7
:10501000F3E0949108C08091C00085FFFCCF90938D
:10502000C600319694919923B1F78091C00085FF15
:10503000FCCF8AE08093C60001C049DC2A960FB6F7
:10504000F894DEBF0FBECDBFCF91DF911F910F91BE
:105050000895CF93DF93CAE3D5E0FE01949108C091
:105060008091C00085FFFCCF9093C600319694914B
:105070009923B1F7E3E1F5E0949108C08091C00075
:1050800085FFFCCF9093C600319694919923B1F798
:105090008091C00085FFFCCF8AE08093C600FE01AE
:1050A0009491EAE3F5E008C08091C00085FFFCCF51
:1050B0009093C600319694919923B1F74091750B66
:1050C0005091760B6091770B7091780B8BE095E0A7
:1050D0000E9434334091790B50917A0B60917B0B95
:1050E00070917C0B88E095E00E94343340917D0BF9
:1050F00050917E0B60917F0B7091800B85E095E065
:105100000E9434334091810B5091820B6091830B4C
:105110007091840B82E095E00E943433EEE1F2E07E
:1051200007C08091C00085FFFCCF31969093C600E8
:1051300090819923B1F78091C00085FFFCCF8AE070
:105140008093C600FE019491EAE3F5E008C08091E7
:10515000C00085FFFCCF9093C600319694919923AF
:10516000B1F7E8EEF4E0949108C08091C00085FFAB
:10517000FCCF9093C600319694919923B1F780911A
:10518000C00085FFFCCF8AE08093C600FE019491A9
:10519000EAE3F5E008C08091C00085FFFCCF909362
:1051A000C600319694919923B1F74091650B5091C7
:1051B000660B6091670B7091680B8FED94E00E9415
:1051C00034334091690B50916A0B60916B0B709175
:1051D0006C0B8CED94E00E94343340916D0B509138
:1051E0006E0B60916F0B7091700B89ED94E00E94D3
:1051F00034334091710B5091720B6091730B70912D
:10520000740B86ED94E00E943433EEE1F2E007C0C7
:105210008091C00085FFFCCF31969093C6009081AD
:105220009923B1F78091C00085FFFCCF8AE080937D
:10523000C600FE019491EAE3F5E008C08091C00049
:1052400085FFFCCF9093C600319694919923B1F7D6
:10525000E8EBF4E0949108C08091C00085FFFCCF9A
:105260009093C600319694919923B1F78091C00034
:1052700085FFFCCF8AE08093C600FE019491EAE3AB
:10528000F5E008C08091C00085FFFCCF9093C60078
:10529000319694919923B1F74091850B5091860BEB
:1052A0006091870B7091880B8FEA94E00E944633DF
:1052B0004091890B50918A0B60918B0B70918C0BF4
:1052C0008CEA94E00E94463340918D0B50918E0BF6
:1052D00060918F0B7091900B89EA94E00E944633A5
:1052E0004091910B5091920B6091930B7091940BA4
:1052F00086EA94E00E944633EEE1F2E007C0809136
:10530000C00085FFFCCF31969093C6009081992311
:10531000B1F78091C00085FFFCCF8AE08093C60082
:10532000FE019491EAE3F5E008C08091C00085FF9A
:10533000FCCF9093C600319694919923B1F7E1E7A1
:10534000F4E0949108C08091C00085FFFCCF909359
:10535000C600319694919923B1F78091C00085FFE2
:10536000FCCF8AE08093C600FE019491EAE3F5E069
:1053700008C08091C00085FFFCCF9093C600319695
:1053800094919923B1F74091990B50919A0B6091A8
:105390009B0B70919C0B88E694E00E943433409103
:1053A0009D0B50919E0B60919F0B7091A00B85E619
:1053B00094E00E943433EEE1F2E007C08091C00037
:1053C00085FFFCCF31969093C60090819923B1F769
:1053D0008091C00085FFFCCF8AE08093C600FE016B
:1053E0009491EAE3F5E008C08091C00085FFFCCF0E
:1053F0009093C600319694919923B1F7E2EBF3E0D4
:10540000949108C08091C00085FFFCCF9093C600A6
:10541000319694919923B1F78091C00085FFFCCF1C
:105420008AE08093C600FE019491EAE3F5E008C0AB
:105430008091C00085FFFCCF9093C6003196949177
:105440009923B1F74091950B5091960B6091970B72
:105450007091980B89EA93E00E9434334091AD0B30
:105460005091AE0B6091AF0B7091B00B86EA93E058
:105470000E9434334091610B5091620B6091630B39
:105480007091640B83EA93E00E9446334091A10B34
:105490005091A20B6091A30B7091A40B80EA93E052
:1054A0000E9434334091A50B5091A60B6091A70B3D
:1054B0007091A80B8DE993E00E9434334091A90BC1
:1054C0005091AA0B6091AB0B7091AC0B8AE993E001
:1054D0000E943433EEE1F2E007C08091C00085FF06
:1054E000FCCF31969093C60090819923B1F78091BB
:1054F000C00085FFFCCF8AE08093C600FE01949136
:10550000EAE3F5E008C08091C00085FFFCCF9093EE
:10551000C600319694919923B1F7E8E8F3E09491AD
:1055200008C08091C00085FFFCCF9093C6003196E3
:1055300094919923B1F78091C00085FFFCCF8AE058
:105540008093C600FE019491EAE3F5E008C08091E3
:10555000C00085FFFCCF9093C600319694919923AB
:10556000B1F740916709509168096091690970919C
:105570006A098FE793E00E94343340916B095091A0
:105580006C0960916D0970916E098CE793E00E943F
:10559000343340916F095091700960917109709195
:1055A000720989E793E00E943433EEE1F2E007C02C
:1055B0008091C00085FFFCCF31969093C60090810A
:1055C0009923B1F78091C00085FFFCCF8AE08093DA
:1055D000C600FE019491EAE3F5E008C08091C000A6
:1055E00085FFFCCF9093C600319694919923B1F733
:1055F000EBE6F3E0949108C08091C00085FFFCCFFA
:105600009093C600319694919923B1F78091C00090
:1056100085FFFCCF8AE08093C600FE019491EAE307
:10562000F5E008C08091C00085FFFCCF9093C600D4
:10563000319694919923B1F740911A0550911B0529
:1056400060911C0570911D0581E693E00E94343342
:1056500060911E0570911F05809120059091210594
:105660000E94F885AB01BC018EE593E0FDD7609107
:1056700022057091230580912405909125050E94B3
:105680000486AB01BC018BE593E0EED7EEE1F2E0DE
:1056900007C08091C00085FFFCCF31969093C60073
:1056A00090819923B1F78091C00085FFFCCF8AE0FB
:1056B0008093C600DF91CF9108951F920F920FB68D
:1056C0000F920BB60F9211242F933F934F938F930A
:1056D0009F93EF93FF934091C600E091AC06F09149
:1056E000AD0631969F012F77307031978091AE06CD
:1056F0009091AF062817390739F0E45DF94F4083E0
:105700003093AD062093AC06FF91EF919F918F915E
:105710004F913F912F910F900BBE0F900FBE0F90A6
:105720001F9018959A01AB01203081EE380780E078
:10573000480780E0580749F182E08093C00060E0AC
:1057400079E08DE390E00E94DDCE21503040404072
:105750005040CA01B90122E030E040E050E00E9430
:10576000DDCE3093C5002093C4008091C1008061DC
:105770008093C1008091C10088608093C1008091B6
:10578000C10080688093C10008951092C00020E19C
:1057900030E0E7CF2091AE063091AF068091AC06A5
:1057A0009091AD068217930719F42FEF3FEF0EC0CB
:1057B000F901E45DF94F80812F5F3F4F2F77307003
:1057C0003093AF062093AE06282F30E0C90108952C
:1057D0008091AE069091AF069093AD068093AC0693
:1057E000089508952F923F924F925F926F927F9209
:1057F0008F929F92AF92BF92CF92DF92EF92FF92E1
:105800000F931F93DF93CF93CDB7DEB7A0970FB65B
:10581000F894DEBF0FBECDBF1C016A017B014115AC
:1058200051056105710541F440E350E060E070E02E
:1058300020E030E08BD055C0882499245401422EBA
:1058400055246624772401E010E00C0F1D1F080D7D
:10585000191DC701B601A30192010E94BBCEF80138
:1058600060830894811C911CA11CB11CC701B60166
:10587000A30192010E94BBCEC901DA016C017D0136
:10588000C114D104E104F104F1F681E0E82EF12C19
:10589000EC0EFD1EE80CF91C3E010894611C711C05
:1058A000D501C4010197A109B1096C01C818D90833
:1058B00015C0F601EE0DFF1D40814A3010F4405D29
:1058C00001C0495C552747FD5095652F752FC101D3
:1058D00020E030E03BD00894E108F1086E147F042A
:1058E00041F7A0960FB6F894DEBF0FBECDBFCF91A3
:1058F000DF911F910F91FF90EF90DF90CF90BF90BD
:10590000AF909F908F907F906F905F904F903F905F
:105910002F9008952115310539F48091C00085FF3D
:10592000FCCF4093C60008955DCFEF92FF920F9396
:105930001F939A01E62EFF2400E010E0B801A701B2
:10594000E9DF1F910F91FF90EF900895EF92FF9282
:105950000F931F93CF93DF93EC017A018B012115F5
:10596000310539F48091C00085FFFCCFE092C6007C
:1059700019C02A303105A9F477FF0FC04DE250E07D
:1059800060E070E020E030E0E1DF10950095F094F9
:10599000E094E11CF11C011D111DCE01B801A7010D
:1059A0002AE020DFDF91CF911F910F91FF90EF90C0
:1059B0000895EF92FF920F931F937B019A010027A6
:1059C000F7FC0095102FB801A701C0DF1F910F91C0
:1059D000FF90EF9008950F931F938C014DE050E0DE
:1059E00060E070E020E030E0B1DFC8014AE050E064
:1059F00060E070E020E030E0A9DF1F910F91089592
:105A0000CF92DF92EF92FF920F931F938C019A0136
:105A10006B01EE24FF24B701A6017CDFC801DBDFA8
:105A20001F910F91FF90EF90DF90CF9008959F927C
:105A3000AF92BF92CF92DF92EF92FF920F931F939C
:105A4000CF93DF93EC017A018B01922ECB01BA0147
:105A500020E030E040E050E00E94C3CA882364F4B4
:105A6000CE014DE250E060E070E020E030E06EDF1B
:105A700017FB109517F9109520E030E040E05FE348
:105A8000AA240BC0CA01B90120E030E040E251E491
:105A90000E94CACA9B01AC01A394A91498F3C8013F
:105AA000B7010E94EAC97B018C010E9437CB5B01E0
:105AB0006C010E9463CB9B01AC01C801B7010E943D
:105AC000E9C97B018C01CE01B601A5012AE030E0D5
:105AD00021DF992099F1EFE1F2E007C08091C00049
